{
	"contracts/Arrays.sol": {
		"ArrayRemoveByShifting": {
			"abi": [
				{
					"inputs": [
						{
							"internalType": "uint256",
							"name": "",
							"type": "uint256"
						}
					],
					"name": "arr",
					"outputs": [
						{
							"internalType": "uint256",
							"name": "",
							"type": "uint256"
						}
					],
					"stateMutability": "view",
					"type": "function"
				},
				{
					"inputs": [
						{
							"internalType": "uint256",
							"name": "_index",
							"type": "uint256"
						}
					],
					"name": "remove",
					"outputs": [],
					"stateMutability": "nonpayable",
					"type": "function"
				},
				{
					"inputs": [],
					"name": "test",
					"outputs": [],
					"stateMutability": "nonpayable",
					"type": "function"
				}
			],
			"devdoc": {
				"kind": "dev",
				"methods": {},
				"version": 1
			},
			"evm": {
				"assembly": "    /* \"contracts/Arrays.sol\":1668:2562  contract ArrayRemoveByShifting {... */\n  mstore(0x40, 0x80)\n  callvalue\n  dup1\n  iszero\n  tag_1\n  jumpi\n  0x00\n  dup1\n  revert\ntag_1:\n  pop\n  dataSize(sub_0)\n  dup1\n  dataOffset(sub_0)\n  0x00\n  codecopy\n  0x00\n  return\nstop\n\nsub_0: assembly {\n        /* \"contracts/Arrays.sol\":1668:2562  contract ArrayRemoveByShifting {... */\n      mstore(0x40, 0x80)\n      callvalue\n      dup1\n      iszero\n      tag_1\n      jumpi\n      0x00\n      dup1\n      revert\n    tag_1:\n      pop\n      jumpi(tag_2, lt(calldatasize, 0x04))\n      shr(0xe0, calldataload(0x00))\n      dup1\n      0x4cc82215\n      eq\n      tag_3\n      jumpi\n      dup1\n      0x71e5ee5f\n      eq\n      tag_4\n      jumpi\n      dup1\n      0xf8a8fd6d\n      eq\n      tag_5\n      jumpi\n    tag_2:\n      0x00\n      dup1\n      revert\n        /* \"contracts/Arrays.sol\":1988:2211  function remove(uint _index) public {... */\n    tag_3:\n      tag_6\n      0x04\n      dup1\n      calldatasize\n      sub\n      dup2\n      add\n      swap1\n      tag_7\n      swap2\n      swap1\n      tag_8\n      jump\t// in\n    tag_7:\n      tag_9\n      jump\t// in\n    tag_6:\n      stop\n        /* \"contracts/Arrays.sol\":1964:1981  uint[] public arr */\n    tag_4:\n      tag_10\n      0x04\n      dup1\n      calldatasize\n      sub\n      dup2\n      add\n      swap1\n      tag_11\n      swap2\n      swap1\n      tag_8\n      jump\t// in\n    tag_11:\n      tag_12\n      jump\t// in\n    tag_10:\n      mload(0x40)\n      tag_13\n      swap2\n      swap1\n      tag_14\n      jump\t// in\n    tag_13:\n      mload(0x40)\n      dup1\n      swap2\n      sub\n      swap1\n      return\n        /* \"contracts/Arrays.sol\":2217:2558  function test() external {... */\n    tag_5:\n      tag_15\n      tag_16\n      jump\t// in\n    tag_15:\n      stop\n        /* \"contracts/Arrays.sol\":1988:2211  function remove(uint _index) public {... */\n    tag_9:\n        /* \"contracts/Arrays.sol\":2051:2054  arr */\n      0x00\n        /* \"contracts/Arrays.sol\":2051:2061  arr.length */\n      dup1\n      sload\n      swap1\n      pop\n        /* \"contracts/Arrays.sol\":2042:2048  _index */\n      dup2\n        /* \"contracts/Arrays.sol\":2042:2061  _index < arr.length */\n      lt\n        /* \"contracts/Arrays.sol\":2034:2084  require(_index < arr.length, \"index out of bound\") */\n      tag_18\n      jumpi\n      mload(0x40)\n      0x08c379a000000000000000000000000000000000000000000000000000000000\n      dup2\n      mstore\n      0x04\n      add\n      tag_19\n      swap1\n      tag_20\n      jump\t// in\n    tag_19:\n      mload(0x40)\n      dup1\n      swap2\n      sub\n      swap1\n      revert\n    tag_18:\n        /* \"contracts/Arrays.sol\":2100:2106  uint i */\n      0x00\n        /* \"contracts/Arrays.sol\":2109:2115  _index */\n      dup2\n        /* \"contracts/Arrays.sol\":2100:2115  uint i = _index */\n      swap1\n      pop\n        /* \"contracts/Arrays.sol\":2095:2186  for (uint i = _index; i < arr.length - 1; i++) {... */\n    tag_21:\n        /* \"contracts/Arrays.sol\":2134:2135  1 */\n      0x01\n        /* \"contracts/Arrays.sol\":2121:2124  arr */\n      0x00\n        /* \"contracts/Arrays.sol\":2121:2131  arr.length */\n      dup1\n      sload\n      swap1\n      pop\n        /* \"contracts/Arrays.sol\":2121:2135  arr.length - 1 */\n      tag_24\n      swap2\n      swap1\n      tag_25\n      jump\t// in\n    tag_24:\n        /* \"contracts/Arrays.sol\":2117:2118  i */\n      dup2\n        /* \"contracts/Arrays.sol\":2117:2135  i < arr.length - 1 */\n      lt\n        /* \"contracts/Arrays.sol\":2095:2186  for (uint i = _index; i < arr.length - 1; i++) {... */\n      iszero\n      tag_22\n      jumpi\n        /* \"contracts/Arrays.sol\":2165:2168  arr */\n      0x00\n        /* \"contracts/Arrays.sol\":2173:2174  1 */\n      0x01\n        /* \"contracts/Arrays.sol\":2169:2170  i */\n      dup3\n        /* \"contracts/Arrays.sol\":2169:2174  i + 1 */\n      tag_26\n      swap2\n      swap1\n      tag_27\n      jump\t// in\n    tag_26:\n        /* \"contracts/Arrays.sol\":2165:2175  arr[i + 1] */\n      dup2\n      sload\n      dup2\n      lt\n      tag_28\n      jumpi\n      tag_29\n      tag_30\n      jump\t// in\n    tag_29:\n    tag_28:\n      swap1\n      0x00\n      mstore\n      keccak256(0x00, 0x20)\n      add\n      sload\n        /* \"contracts/Arrays.sol\":2156:2159  arr */\n      0x00\n        /* \"contracts/Arrays.sol\":2160:2161  i */\n      dup3\n        /* \"contracts/Arrays.sol\":2156:2162  arr[i] */\n      dup2\n      sload\n      dup2\n      lt\n      tag_32\n      jumpi\n      tag_33\n      tag_30\n      jump\t// in\n    tag_33:\n    tag_32:\n      swap1\n      0x00\n      mstore\n      keccak256(0x00, 0x20)\n      add\n        /* \"contracts/Arrays.sol\":2156:2175  arr[i] = arr[i + 1] */\n      dup2\n      swap1\n      sstore\n      pop\n        /* \"contracts/Arrays.sol\":2137:2140  i++ */\n      dup1\n      dup1\n      tag_35\n      swap1\n      tag_36\n      jump\t// in\n    tag_35:\n      swap2\n      pop\n      pop\n        /* \"contracts/Arrays.sol\":2095:2186  for (uint i = _index; i < arr.length - 1; i++) {... */\n      jump(tag_21)\n    tag_22:\n      pop\n        /* \"contracts/Arrays.sol\":2195:2198  arr */\n      0x00\n        /* \"contracts/Arrays.sol\":2195:2204  arr.pop() */\n      dup1\n      sload\n      dup1\n      tag_37\n      jumpi\n      tag_38\n      tag_39\n      jump\t// in\n    tag_38:\n    tag_37:\n      0x01\n      swap1\n      sub\n      dup2\n      dup2\n      swap1\n      0x00\n      mstore\n      keccak256(0x00, 0x20)\n      add\n      0x00\n      swap1\n      sstore\n      swap1\n      sstore\n        /* \"contracts/Arrays.sol\":1988:2211  function remove(uint _index) public {... */\n      pop\n      jump\t// out\n        /* \"contracts/Arrays.sol\":1964:1981  uint[] public arr */\n    tag_12:\n      0x00\n      dup2\n      dup2\n      sload\n      dup2\n      lt\n      tag_41\n      jumpi\n      0x00\n      dup1\n      revert\n    tag_41:\n      swap1\n      0x00\n      mstore\n      keccak256(0x00, 0x20)\n      add\n      0x00\n      swap2\n      pop\n      swap1\n      pop\n      sload\n      dup2\n      jump\t// out\n        /* \"contracts/Arrays.sol\":2217:2558  function test() external {... */\n    tag_16:\n        /* \"contracts/Arrays.sol\":2252:2273  arr = [1, 2, 3, 4, 5] */\n      mload(0x40)\n      dup1\n      0xa0\n      add\n      0x40\n      mstore\n      dup1\n        /* \"contracts/Arrays.sol\":2259:2260  1 */\n      0x01\n        /* \"contracts/Arrays.sol\":2252:2273  arr = [1, 2, 3, 4, 5] */\n      0xff\n      and\n      dup2\n      mstore\n      0x20\n      add\n        /* \"contracts/Arrays.sol\":2262:2263  2 */\n      0x02\n        /* \"contracts/Arrays.sol\":2252:2273  arr = [1, 2, 3, 4, 5] */\n      0xff\n      and\n      dup2\n      mstore\n      0x20\n      add\n        /* \"contracts/Arrays.sol\":2265:2266  3 */\n      0x03\n        /* \"contracts/Arrays.sol\":2252:2273  arr = [1, 2, 3, 4, 5] */\n      0xff\n      and\n      dup2\n      mstore\n      0x20\n      add\n        /* \"contracts/Arrays.sol\":2268:2269  4 */\n      0x04\n        /* \"contracts/Arrays.sol\":2252:2273  arr = [1, 2, 3, 4, 5] */\n      0xff\n      and\n      dup2\n      mstore\n      0x20\n      add\n        /* \"contracts/Arrays.sol\":2271:2272  5 */\n      0x05\n        /* \"contracts/Arrays.sol\":2252:2273  arr = [1, 2, 3, 4, 5] */\n      0xff\n      and\n      dup2\n      mstore\n      pop\n        /* \"contracts/Arrays.sol\":2252:2255  arr */\n      0x00\n        /* \"contracts/Arrays.sol\":2252:2273  arr = [1, 2, 3, 4, 5] */\n      swap1\n      0x05\n      tag_44\n      swap3\n      swap2\n      swap1\n      tag_45\n      jump\t// in\n    tag_44:\n      pop\n        /* \"contracts/Arrays.sol\":2283:2292  remove(2) */\n      tag_46\n        /* \"contracts/Arrays.sol\":2290:2291  2 */\n      0x02\n        /* \"contracts/Arrays.sol\":2283:2289  remove */\n      tag_9\n        /* \"contracts/Arrays.sol\":2283:2292  remove(2) */\n      jump\t// in\n    tag_46:\n        /* \"contracts/Arrays.sol\":2343:2344  1 */\n      0x01\n        /* \"contracts/Arrays.sol\":2333:2336  arr */\n      0x00\n        /* \"contracts/Arrays.sol\":2337:2338  0 */\n      dup1\n        /* \"contracts/Arrays.sol\":2333:2339  arr[0] */\n      dup2\n      sload\n      dup2\n      lt\n      tag_47\n      jumpi\n      tag_48\n      tag_30\n      jump\t// in\n    tag_48:\n    tag_47:\n      swap1\n      0x00\n      mstore\n      keccak256(0x00, 0x20)\n      add\n      sload\n        /* \"contracts/Arrays.sol\":2333:2344  arr[0] == 1 */\n      eq\n        /* \"contracts/Arrays.sol\":2326:2345  assert(arr[0] == 1) */\n      tag_50\n      jumpi\n      tag_51\n      tag_52\n      jump\t// in\n    tag_51:\n    tag_50:\n        /* \"contracts/Arrays.sol\":2372:2373  2 */\n      0x02\n        /* \"contracts/Arrays.sol\":2362:2365  arr */\n      0x00\n        /* \"contracts/Arrays.sol\":2366:2367  1 */\n      0x01\n        /* \"contracts/Arrays.sol\":2362:2368  arr[1] */\n      dup2\n      sload\n      dup2\n      lt\n      tag_53\n      jumpi\n      tag_54\n      tag_30\n      jump\t// in\n    tag_54:\n    tag_53:\n      swap1\n      0x00\n      mstore\n      keccak256(0x00, 0x20)\n      add\n      sload\n        /* \"contracts/Arrays.sol\":2362:2373  arr[1] == 2 */\n      eq\n        /* \"contracts/Arrays.sol\":2355:2374  assert(arr[1] == 2) */\n      tag_56\n      jumpi\n      tag_57\n      tag_52\n      jump\t// in\n    tag_57:\n    tag_56:\n        /* \"contracts/Arrays.sol\":2401:2402  4 */\n      0x04\n        /* \"contracts/Arrays.sol\":2391:2394  arr */\n      0x00\n        /* \"contracts/Arrays.sol\":2395:2396  2 */\n      0x02\n        /* \"contracts/Arrays.sol\":2391:2397  arr[2] */\n      dup2\n      sload\n      dup2\n      lt\n      tag_58\n      jumpi\n      tag_59\n      tag_30\n      jump\t// in\n    tag_59:\n    tag_58:\n      swap1\n      0x00\n      mstore\n      keccak256(0x00, 0x20)\n      add\n      sload\n        /* \"contracts/Arrays.sol\":2391:2402  arr[2] == 4 */\n      eq\n        /* \"contracts/Arrays.sol\":2384:2403  assert(arr[2] == 4) */\n      tag_61\n      jumpi\n      tag_62\n      tag_52\n      jump\t// in\n    tag_62:\n    tag_61:\n        /* \"contracts/Arrays.sol\":2430:2431  5 */\n      0x05\n        /* \"contracts/Arrays.sol\":2420:2423  arr */\n      0x00\n        /* \"contracts/Arrays.sol\":2424:2425  3 */\n      0x03\n        /* \"contracts/Arrays.sol\":2420:2426  arr[3] */\n      dup2\n      sload\n      dup2\n      lt\n      tag_63\n      jumpi\n      tag_64\n      tag_30\n      jump\t// in\n    tag_64:\n    tag_63:\n      swap1\n      0x00\n      mstore\n      keccak256(0x00, 0x20)\n      add\n      sload\n        /* \"contracts/Arrays.sol\":2420:2431  arr[3] == 5 */\n      eq\n        /* \"contracts/Arrays.sol\":2413:2432  assert(arr[3] == 5) */\n      tag_66\n      jumpi\n      tag_67\n      tag_52\n      jump\t// in\n    tag_67:\n    tag_66:\n        /* \"contracts/Arrays.sol\":2463:2464  4 */\n      0x04\n        /* \"contracts/Arrays.sol\":2449:2452  arr */\n      0x00\n        /* \"contracts/Arrays.sol\":2449:2459  arr.length */\n      dup1\n      sload\n      swap1\n      pop\n        /* \"contracts/Arrays.sol\":2449:2464  arr.length == 4 */\n      eq\n        /* \"contracts/Arrays.sol\":2442:2465  assert(arr.length == 4) */\n      tag_68\n      jumpi\n      tag_69\n      tag_52\n      jump\t// in\n    tag_69:\n    tag_68:\n        /* \"contracts/Arrays.sol\":2476:2485  arr = [1] */\n      mload(0x40)\n      dup1\n      0x20\n      add\n      0x40\n      mstore\n      dup1\n        /* \"contracts/Arrays.sol\":2483:2484  1 */\n      0x01\n        /* \"contracts/Arrays.sol\":2476:2485  arr = [1] */\n      0xff\n      and\n      dup2\n      mstore\n      pop\n        /* \"contracts/Arrays.sol\":2476:2479  arr */\n      0x00\n        /* \"contracts/Arrays.sol\":2476:2485  arr = [1] */\n      swap1\n      0x01\n      tag_70\n      swap3\n      swap2\n      swap1\n      tag_71\n      jump\t// in\n    tag_70:\n      pop\n        /* \"contracts/Arrays.sol\":2495:2504  remove(0) */\n      tag_72\n        /* \"contracts/Arrays.sol\":2502:2503  0 */\n      0x00\n        /* \"contracts/Arrays.sol\":2495:2501  remove */\n      tag_9\n        /* \"contracts/Arrays.sol\":2495:2504  remove(0) */\n      jump\t// in\n    tag_72:\n        /* \"contracts/Arrays.sol\":2549:2550  0 */\n      0x00\n        /* \"contracts/Arrays.sol\":2535:2538  arr */\n      dup1\n        /* \"contracts/Arrays.sol\":2535:2545  arr.length */\n      dup1\n      sload\n      swap1\n      pop\n        /* \"contracts/Arrays.sol\":2535:2550  arr.length == 0 */\n      eq\n        /* \"contracts/Arrays.sol\":2528:2551  assert(arr.length == 0) */\n      tag_73\n      jumpi\n      tag_74\n      tag_52\n      jump\t// in\n    tag_74:\n    tag_73:\n        /* \"contracts/Arrays.sol\":2217:2558  function test() external {... */\n      jump\t// out\n    tag_45:\n      dup3\n      dup1\n      sload\n      dup3\n      dup3\n      sstore\n      swap1\n      0x00\n      mstore\n      keccak256(0x00, 0x20)\n      swap1\n      dup2\n      add\n      swap3\n      dup3\n      iszero\n      tag_75\n      jumpi\n      swap2\n      0x20\n      mul\n      dup3\n      add\n    tag_76:\n      dup3\n      dup2\n      gt\n      iszero\n      tag_77\n      jumpi\n      dup3\n      mload\n      dup3\n      swap1\n      0xff\n      and\n      swap1\n      sstore\n      swap2\n      0x20\n      add\n      swap2\n      swap1\n      0x01\n      add\n      swap1\n      jump(tag_76)\n    tag_77:\n    tag_75:\n      pop\n      swap1\n      pop\n      tag_78\n      swap2\n      swap1\n      tag_79\n      jump\t// in\n    tag_78:\n      pop\n      swap1\n      jump\t// out\n    tag_71:\n      dup3\n      dup1\n      sload\n      dup3\n      dup3\n      sstore\n      swap1\n      0x00\n      mstore\n      keccak256(0x00, 0x20)\n      swap1\n      dup2\n      add\n      swap3\n      dup3\n      iszero\n      tag_80\n      jumpi\n      swap2\n      0x20\n      mul\n      dup3\n      add\n    tag_81:\n      dup3\n      dup2\n      gt\n      iszero\n      tag_82\n      jumpi\n      dup3\n      mload\n      dup3\n      swap1\n      0xff\n      and\n      swap1\n      sstore\n      swap2\n      0x20\n      add\n      swap2\n      swap1\n      0x01\n      add\n      swap1\n      jump(tag_81)\n    tag_82:\n    tag_80:\n      pop\n      swap1\n      pop\n      tag_83\n      swap2\n      swap1\n      tag_79\n      jump\t// in\n    tag_83:\n      pop\n      swap1\n      jump\t// out\n    tag_79:\n    tag_84:\n      dup1\n      dup3\n      gt\n      iszero\n      tag_85\n      jumpi\n      0x00\n      dup2\n      0x00\n      swap1\n      sstore\n      pop\n      0x01\n      add\n      jump(tag_84)\n    tag_85:\n      pop\n      swap1\n      jump\t// out\n        /* \"#utility.yul\":88:205   */\n    tag_87:\n        /* \"#utility.yul\":197:198   */\n      0x00\n        /* \"#utility.yul\":194:195   */\n      dup1\n        /* \"#utility.yul\":187:199   */\n      revert\n        /* \"#utility.yul\":334:411   */\n    tag_89:\n        /* \"#utility.yul\":371:378   */\n      0x00\n        /* \"#utility.yul\":400:405   */\n      dup2\n        /* \"#utility.yul\":389:405   */\n      swap1\n      pop\n        /* \"#utility.yul\":334:411   */\n      swap2\n      swap1\n      pop\n      jump\t// out\n        /* \"#utility.yul\":417:539   */\n    tag_90:\n        /* \"#utility.yul\":490:514   */\n      tag_103\n        /* \"#utility.yul\":508:513   */\n      dup2\n        /* \"#utility.yul\":490:514   */\n      tag_89\n      jump\t// in\n    tag_103:\n        /* \"#utility.yul\":483:488   */\n      dup2\n        /* \"#utility.yul\":480:515   */\n      eq\n        /* \"#utility.yul\":470:533   */\n      tag_104\n      jumpi\n        /* \"#utility.yul\":529:530   */\n      0x00\n        /* \"#utility.yul\":526:527   */\n      dup1\n        /* \"#utility.yul\":519:531   */\n      revert\n        /* \"#utility.yul\":470:533   */\n    tag_104:\n        /* \"#utility.yul\":417:539   */\n      pop\n      jump\t// out\n        /* \"#utility.yul\":545:684   */\n    tag_91:\n        /* \"#utility.yul\":591:596   */\n      0x00\n        /* \"#utility.yul\":629:635   */\n      dup2\n        /* \"#utility.yul\":616:636   */\n      calldataload\n        /* \"#utility.yul\":607:636   */\n      swap1\n      pop\n        /* \"#utility.yul\":645:678   */\n      tag_106\n        /* \"#utility.yul\":672:677   */\n      dup2\n        /* \"#utility.yul\":645:678   */\n      tag_90\n      jump\t// in\n    tag_106:\n        /* \"#utility.yul\":545:684   */\n      swap3\n      swap2\n      pop\n      pop\n      jump\t// out\n        /* \"#utility.yul\":690:1019   */\n    tag_8:\n        /* \"#utility.yul\":749:755   */\n      0x00\n        /* \"#utility.yul\":798:800   */\n      0x20\n        /* \"#utility.yul\":786:795   */\n      dup3\n        /* \"#utility.yul\":777:784   */\n      dup5\n        /* \"#utility.yul\":773:796   */\n      sub\n        /* \"#utility.yul\":769:801   */\n      slt\n        /* \"#utility.yul\":766:885   */\n      iszero\n      tag_108\n      jumpi\n        /* \"#utility.yul\":804:883   */\n      tag_109\n      tag_87\n      jump\t// in\n    tag_109:\n        /* \"#utility.yul\":766:885   */\n    tag_108:\n        /* \"#utility.yul\":924:925   */\n      0x00\n        /* \"#utility.yul\":949:1002   */\n      tag_110\n        /* \"#utility.yul\":994:1001   */\n      dup5\n        /* \"#utility.yul\":985:991   */\n      dup3\n        /* \"#utility.yul\":974:983   */\n      dup6\n        /* \"#utility.yul\":970:992   */\n      add\n        /* \"#utility.yul\":949:1002   */\n      tag_91\n      jump\t// in\n    tag_110:\n        /* \"#utility.yul\":939:1002   */\n      swap2\n      pop\n        /* \"#utility.yul\":895:1012   */\n      pop\n        /* \"#utility.yul\":690:1019   */\n      swap3\n      swap2\n      pop\n      pop\n      jump\t// out\n        /* \"#utility.yul\":1025:1143   */\n    tag_92:\n        /* \"#utility.yul\":1112:1136   */\n      tag_112\n        /* \"#utility.yul\":1130:1135   */\n      dup2\n        /* \"#utility.yul\":1112:1136   */\n      tag_89\n      jump\t// in\n    tag_112:\n        /* \"#utility.yul\":1107:1110   */\n      dup3\n        /* \"#utility.yul\":1100:1137   */\n      mstore\n        /* \"#utility.yul\":1025:1143   */\n      pop\n      pop\n      jump\t// out\n        /* \"#utility.yul\":1149:1371   */\n    tag_14:\n        /* \"#utility.yul\":1242:1246   */\n      0x00\n        /* \"#utility.yul\":1280:1282   */\n      0x20\n        /* \"#utility.yul\":1269:1278   */\n      dup3\n        /* \"#utility.yul\":1265:1283   */\n      add\n        /* \"#utility.yul\":1257:1283   */\n      swap1\n      pop\n        /* \"#utility.yul\":1293:1364   */\n      tag_114\n        /* \"#utility.yul\":1361:1362   */\n      0x00\n        /* \"#utility.yul\":1350:1359   */\n      dup4\n        /* \"#utility.yul\":1346:1363   */\n      add\n        /* \"#utility.yul\":1337:1343   */\n      dup5\n        /* \"#utility.yul\":1293:1364   */\n      tag_92\n      jump\t// in\n    tag_114:\n        /* \"#utility.yul\":1149:1371   */\n      swap3\n      swap2\n      pop\n      pop\n      jump\t// out\n        /* \"#utility.yul\":1377:1546   */\n    tag_93:\n        /* \"#utility.yul\":1461:1472   */\n      0x00\n        /* \"#utility.yul\":1495:1501   */\n      dup3\n        /* \"#utility.yul\":1490:1493   */\n      dup3\n        /* \"#utility.yul\":1483:1502   */\n      mstore\n        /* \"#utility.yul\":1535:1539   */\n      0x20\n        /* \"#utility.yul\":1530:1533   */\n      dup3\n        /* \"#utility.yul\":1526:1540   */\n      add\n        /* \"#utility.yul\":1511:1540   */\n      swap1\n      pop\n        /* \"#utility.yul\":1377:1546   */\n      swap3\n      swap2\n      pop\n      pop\n      jump\t// out\n        /* \"#utility.yul\":1552:1720   */\n    tag_94:\n        /* \"#utility.yul\":1692:1712   */\n      0x696e646578206f7574206f6620626f756e640000000000000000000000000000\n        /* \"#utility.yul\":1688:1689   */\n      0x00\n        /* \"#utility.yul\":1680:1686   */\n      dup3\n        /* \"#utility.yul\":1676:1690   */\n      add\n        /* \"#utility.yul\":1669:1713   */\n      mstore\n        /* \"#utility.yul\":1552:1720   */\n      pop\n      jump\t// out\n        /* \"#utility.yul\":1726:2092   */\n    tag_95:\n        /* \"#utility.yul\":1868:1871   */\n      0x00\n        /* \"#utility.yul\":1889:1956   */\n      tag_118\n        /* \"#utility.yul\":1953:1955   */\n      0x12\n        /* \"#utility.yul\":1948:1951   */\n      dup4\n        /* \"#utility.yul\":1889:1956   */\n      tag_93\n      jump\t// in\n    tag_118:\n        /* \"#utility.yul\":1882:1956   */\n      swap2\n      pop\n        /* \"#utility.yul\":1965:2058   */\n      tag_119\n        /* \"#utility.yul\":2054:2057   */\n      dup3\n        /* \"#utility.yul\":1965:2058   */\n      tag_94\n      jump\t// in\n    tag_119:\n        /* \"#utility.yul\":2083:2085   */\n      0x20\n        /* \"#utility.yul\":2078:2081   */\n      dup3\n        /* \"#utility.yul\":2074:2086   */\n      add\n        /* \"#utility.yul\":2067:2086   */\n      swap1\n      pop\n        /* \"#utility.yul\":1726:2092   */\n      swap2\n      swap1\n      pop\n      jump\t// out\n        /* \"#utility.yul\":2098:2517   */\n    tag_20:\n        /* \"#utility.yul\":2264:2268   */\n      0x00\n        /* \"#utility.yul\":2302:2304   */\n      0x20\n        /* \"#utility.yul\":2291:2300   */\n      dup3\n        /* \"#utility.yul\":2287:2305   */\n      add\n        /* \"#utility.yul\":2279:2305   */\n      swap1\n      pop\n        /* \"#utility.yul\":2351:2360   */\n      dup2\n        /* \"#utility.yul\":2345:2349   */\n      dup2\n        /* \"#utility.yul\":2341:2361   */\n      sub\n        /* \"#utility.yul\":2337:2338   */\n      0x00\n        /* \"#utility.yul\":2326:2335   */\n      dup4\n        /* \"#utility.yul\":2322:2339   */\n      add\n        /* \"#utility.yul\":2315:2362   */\n      mstore\n        /* \"#utility.yul\":2379:2510   */\n      tag_121\n        /* \"#utility.yul\":2505:2509   */\n      dup2\n        /* \"#utility.yul\":2379:2510   */\n      tag_95\n      jump\t// in\n    tag_121:\n        /* \"#utility.yul\":2371:2510   */\n      swap1\n      pop\n        /* \"#utility.yul\":2098:2517   */\n      swap2\n      swap1\n      pop\n      jump\t// out\n        /* \"#utility.yul\":2523:2703   */\n    tag_96:\n        /* \"#utility.yul\":2571:2648   */\n      0x4e487b7100000000000000000000000000000000000000000000000000000000\n        /* \"#utility.yul\":2568:2569   */\n      0x00\n        /* \"#utility.yul\":2561:2649   */\n      mstore\n        /* \"#utility.yul\":2668:2672   */\n      0x11\n        /* \"#utility.yul\":2665:2666   */\n      0x04\n        /* \"#utility.yul\":2658:2673   */\n      mstore\n        /* \"#utility.yul\":2692:2696   */\n      0x24\n        /* \"#utility.yul\":2689:2690   */\n      0x00\n        /* \"#utility.yul\":2682:2697   */\n      revert\n        /* \"#utility.yul\":2709:2900   */\n    tag_25:\n        /* \"#utility.yul\":2749:2753   */\n      0x00\n        /* \"#utility.yul\":2769:2789   */\n      tag_124\n        /* \"#utility.yul\":2787:2788   */\n      dup3\n        /* \"#utility.yul\":2769:2789   */\n      tag_89\n      jump\t// in\n    tag_124:\n        /* \"#utility.yul\":2764:2789   */\n      swap2\n      pop\n        /* \"#utility.yul\":2803:2823   */\n      tag_125\n        /* \"#utility.yul\":2821:2822   */\n      dup4\n        /* \"#utility.yul\":2803:2823   */\n      tag_89\n      jump\t// in\n    tag_125:\n        /* \"#utility.yul\":2798:2823   */\n      swap3\n      pop\n        /* \"#utility.yul\":2842:2843   */\n      dup3\n        /* \"#utility.yul\":2839:2840   */\n      dup3\n        /* \"#utility.yul\":2836:2844   */\n      lt\n        /* \"#utility.yul\":2833:2867   */\n      iszero\n      tag_126\n      jumpi\n        /* \"#utility.yul\":2847:2865   */\n      tag_127\n      tag_96\n      jump\t// in\n    tag_127:\n        /* \"#utility.yul\":2833:2867   */\n    tag_126:\n        /* \"#utility.yul\":2892:2893   */\n      dup3\n        /* \"#utility.yul\":2889:2890   */\n      dup3\n        /* \"#utility.yul\":2885:2894   */\n      sub\n        /* \"#utility.yul\":2877:2894   */\n      swap1\n      pop\n        /* \"#utility.yul\":2709:2900   */\n      swap3\n      swap2\n      pop\n      pop\n      jump\t// out\n        /* \"#utility.yul\":2906:3211   */\n    tag_27:\n        /* \"#utility.yul\":2946:2949   */\n      0x00\n        /* \"#utility.yul\":2965:2985   */\n      tag_129\n        /* \"#utility.yul\":2983:2984   */\n      dup3\n        /* \"#utility.yul\":2965:2985   */\n      tag_89\n      jump\t// in\n    tag_129:\n        /* \"#utility.yul\":2960:2985   */\n      swap2\n      pop\n        /* \"#utility.yul\":2999:3019   */\n      tag_130\n        /* \"#utility.yul\":3017:3018   */\n      dup4\n        /* \"#utility.yul\":2999:3019   */\n      tag_89\n      jump\t// in\n    tag_130:\n        /* \"#utility.yul\":2994:3019   */\n      swap3\n      pop\n        /* \"#utility.yul\":3153:3154   */\n      dup3\n        /* \"#utility.yul\":3085:3151   */\n      0xffffffffffffffffffffffffffffffffffffffffffffffffffffffffffffffff\n        /* \"#utility.yul\":3081:3155   */\n      sub\n        /* \"#utility.yul\":3078:3079   */\n      dup3\n        /* \"#utility.yul\":3075:3156   */\n      gt\n        /* \"#utility.yul\":3072:3179   */\n      iszero\n      tag_131\n      jumpi\n        /* \"#utility.yul\":3159:3177   */\n      tag_132\n      tag_96\n      jump\t// in\n    tag_132:\n        /* \"#utility.yul\":3072:3179   */\n    tag_131:\n        /* \"#utility.yul\":3203:3204   */\n      dup3\n        /* \"#utility.yul\":3200:3201   */\n      dup3\n        /* \"#utility.yul\":3196:3205   */\n      add\n        /* \"#utility.yul\":3189:3205   */\n      swap1\n      pop\n        /* \"#utility.yul\":2906:3211   */\n      swap3\n      swap2\n      pop\n      pop\n      jump\t// out\n        /* \"#utility.yul\":3217:3397   */\n    tag_30:\n        /* \"#utility.yul\":3265:3342   */\n      0x4e487b7100000000000000000000000000000000000000000000000000000000\n        /* \"#utility.yul\":3262:3263   */\n      0x00\n        /* \"#utility.yul\":3255:3343   */\n      mstore\n        /* \"#utility.yul\":3362:3366   */\n      0x32\n        /* \"#utility.yul\":3359:3360   */\n      0x04\n        /* \"#utility.yul\":3352:3367   */\n      mstore\n        /* \"#utility.yul\":3386:3390   */\n      0x24\n        /* \"#utility.yul\":3383:3384   */\n      0x00\n        /* \"#utility.yul\":3376:3391   */\n      revert\n        /* \"#utility.yul\":3403:3636   */\n    tag_36:\n        /* \"#utility.yul\":3442:3445   */\n      0x00\n        /* \"#utility.yul\":3465:3489   */\n      tag_135\n        /* \"#utility.yul\":3483:3488   */\n      dup3\n        /* \"#utility.yul\":3465:3489   */\n      tag_89\n      jump\t// in\n    tag_135:\n        /* \"#utility.yul\":3456:3489   */\n      swap2\n      pop\n        /* \"#utility.yul\":3511:3577   */\n      0xffffffffffffffffffffffffffffffffffffffffffffffffffffffffffffffff\n        /* \"#utility.yul\":3504:3509   */\n      dup3\n        /* \"#utility.yul\":3501:3578   */\n      sub\n        /* \"#utility.yul\":3498:3601   */\n      tag_136\n      jumpi\n        /* \"#utility.yul\":3581:3599   */\n      tag_137\n      tag_96\n      jump\t// in\n    tag_137:\n        /* \"#utility.yul\":3498:3601   */\n    tag_136:\n        /* \"#utility.yul\":3628:3629   */\n      0x01\n        /* \"#utility.yul\":3621:3626   */\n      dup3\n        /* \"#utility.yul\":3617:3630   */\n      add\n        /* \"#utility.yul\":3610:3630   */\n      swap1\n      pop\n        /* \"#utility.yul\":3403:3636   */\n      swap2\n      swap1\n      pop\n      jump\t// out\n        /* \"#utility.yul\":3642:3822   */\n    tag_39:\n        /* \"#utility.yul\":3690:3767   */\n      0x4e487b7100000000000000000000000000000000000000000000000000000000\n        /* \"#utility.yul\":3687:3688   */\n      0x00\n        /* \"#utility.yul\":3680:3768   */\n      mstore\n        /* \"#utility.yul\":3787:3791   */\n      0x31\n        /* \"#utility.yul\":3784:3785   */\n      0x04\n        /* \"#utility.yul\":3777:3792   */\n      mstore\n        /* \"#utility.yul\":3811:3815   */\n      0x24\n        /* \"#utility.yul\":3808:3809   */\n      0x00\n        /* \"#utility.yul\":3801:3816   */\n      revert\n        /* \"#utility.yul\":3828:4008   */\n    tag_52:\n        /* \"#utility.yul\":3876:3953   */\n      0x4e487b7100000000000000000000000000000000000000000000000000000000\n        /* \"#utility.yul\":3873:3874   */\n      0x00\n        /* \"#utility.yul\":3866:3954   */\n      mstore\n        /* \"#utility.yul\":3973:3977   */\n      0x01\n        /* \"#utility.yul\":3970:3971   */\n      0x04\n        /* \"#utility.yul\":3963:3978   */\n      mstore\n        /* \"#utility.yul\":3997:4001   */\n      0x24\n        /* \"#utility.yul\":3994:3995   */\n      0x00\n        /* \"#utility.yul\":3987:4002   */\n      revert\n\n    auxdata: 0xa2646970667358221220803e19bbf24ca868d699f252eb5dd7c118c619f41a09414201fbd16b1939afcf64736f6c634300080f0033\n}\n",
				"bytecode": {
					"linkReferences": {},
					"object": "608060405234801561001057600080fd5b506106b6806100206000396000f3fe608060405234801561001057600080fd5b50600436106100415760003560e01c80634cc822151461004657806371e5ee5f14610062578063f8a8fd6d14610092575b600080fd5b610060600480360381019061005b919061041e565b61009c565b005b61007c6004803603810190610077919061041e565b61018e565b604051610089919061045a565b60405180910390f35b61009a6101b2565b005b60008054905081106100e3576040517f08c379a00000000000000000000000000000000000000000000000000000000081526004016100da906104d2565b60405180910390fd5b60008190505b60016000805490506100fb9190610521565b8110156101625760006001826101119190610555565b81548110610122576101216105ab565b5b906000526020600020015460008281548110610141576101406105ab565b5b9060005260206000200181905550808061015a906105da565b9150506100e9565b50600080548061017557610174610622565b5b6001900381819060005260206000200160009055905550565b6000818154811061019e57600080fd5b906000526020600020016000915090505481565b6040518060a00160405280600160ff168152602001600260ff168152602001600360ff168152602001600460ff168152602001600560ff1681525060009060056101fd929190610322565b50610208600261009c565b60016000808154811061021e5761021d6105ab565b5b90600052602060002001541461023757610236610651565b5b6002600060018154811061024e5761024d6105ab565b5b90600052602060002001541461026757610266610651565b5b6004600060028154811061027e5761027d6105ab565b5b90600052602060002001541461029757610296610651565b5b600560006003815481106102ae576102ad6105ab565b5b9060005260206000200154146102c7576102c6610651565b5b6004600080549050146102dd576102dc610651565b5b6040518060200160405280600160ff168152506000906001610300929190610374565b5061030b600061009c565b60008080549050146103205761031f610651565b5b565b828054828255906000526020600020908101928215610363579160200282015b82811115610362578251829060ff16905591602001919060010190610342565b5b50905061037091906103c6565b5090565b8280548282559060005260206000209081019282156103b5579160200282015b828111156103b4578251829060ff16905591602001919060010190610394565b5b5090506103c291906103c6565b5090565b5b808211156103df5760008160009055506001016103c7565b5090565b600080fd5b6000819050919050565b6103fb816103e8565b811461040657600080fd5b50565b600081359050610418816103f2565b92915050565b600060208284031215610434576104336103e3565b5b600061044284828501610409565b91505092915050565b610454816103e8565b82525050565b600060208201905061046f600083018461044b565b92915050565b600082825260208201905092915050565b7f696e646578206f7574206f6620626f756e640000000000000000000000000000600082015250565b60006104bc601283610475565b91506104c782610486565b602082019050919050565b600060208201905081810360008301526104eb816104af565b9050919050565b7f4e487b7100000000000000000000000000000000000000000000000000000000600052601160045260246000fd5b600061052c826103e8565b9150610537836103e8565b92508282101561054a576105496104f2565b5b828203905092915050565b6000610560826103e8565b915061056b836103e8565b9250827fffffffffffffffffffffffffffffffffffffffffffffffffffffffffffffffff038211156105a05761059f6104f2565b5b828201905092915050565b7f4e487b7100000000000000000000000000000000000000000000000000000000600052603260045260246000fd5b60006105e5826103e8565b91507fffffffffffffffffffffffffffffffffffffffffffffffffffffffffffffffff8203610617576106166104f2565b5b600182019050919050565b7f4e487b7100000000000000000000000000000000000000000000000000000000600052603160045260246000fd5b7f4e487b7100000000000000000000000000000000000000000000000000000000600052600160045260246000fdfea2646970667358221220803e19bbf24ca868d699f252eb5dd7c118c619f41a09414201fbd16b1939afcf64736f6c634300080f0033",
					"opcodes": "PUSH1 0x80 PUSH1 0x40 MSTORE CALLVALUE DUP1 ISZERO PUSH2 0x10 JUMPI PUSH1 0x0 DUP1 REVERT JUMPDEST POP PUSH2 0x6B6 DUP1 PUSH2 0x20 PUSH1 0x0 CODECOPY PUSH1 0x0 RETURN INVALID PUSH1 0x80 PUSH1 0x40 MSTORE CALLVALUE DUP1 ISZERO PUSH2 0x10 JUMPI PUSH1 0x0 DUP1 REVERT JUMPDEST POP PUSH1 0x4 CALLDATASIZE LT PUSH2 0x41 JUMPI PUSH1 0x0 CALLDATALOAD PUSH1 0xE0 SHR DUP1 PUSH4 0x4CC82215 EQ PUSH2 0x46 JUMPI DUP1 PUSH4 0x71E5EE5F EQ PUSH2 0x62 JUMPI DUP1 PUSH4 0xF8A8FD6D EQ PUSH2 0x92 JUMPI JUMPDEST PUSH1 0x0 DUP1 REVERT JUMPDEST PUSH2 0x60 PUSH1 0x4 DUP1 CALLDATASIZE SUB DUP2 ADD SWAP1 PUSH2 0x5B SWAP2 SWAP1 PUSH2 0x41E JUMP JUMPDEST PUSH2 0x9C JUMP JUMPDEST STOP JUMPDEST PUSH2 0x7C PUSH1 0x4 DUP1 CALLDATASIZE SUB DUP2 ADD SWAP1 PUSH2 0x77 SWAP2 SWAP1 PUSH2 0x41E JUMP JUMPDEST PUSH2 0x18E JUMP JUMPDEST PUSH1 0x40 MLOAD PUSH2 0x89 SWAP2 SWAP1 PUSH2 0x45A JUMP JUMPDEST PUSH1 0x40 MLOAD DUP1 SWAP2 SUB SWAP1 RETURN JUMPDEST PUSH2 0x9A PUSH2 0x1B2 JUMP JUMPDEST STOP JUMPDEST PUSH1 0x0 DUP1 SLOAD SWAP1 POP DUP2 LT PUSH2 0xE3 JUMPI PUSH1 0x40 MLOAD PUSH32 0x8C379A000000000000000000000000000000000000000000000000000000000 DUP2 MSTORE PUSH1 0x4 ADD PUSH2 0xDA SWAP1 PUSH2 0x4D2 JUMP JUMPDEST PUSH1 0x40 MLOAD DUP1 SWAP2 SUB SWAP1 REVERT JUMPDEST PUSH1 0x0 DUP2 SWAP1 POP JUMPDEST PUSH1 0x1 PUSH1 0x0 DUP1 SLOAD SWAP1 POP PUSH2 0xFB SWAP2 SWAP1 PUSH2 0x521 JUMP JUMPDEST DUP2 LT ISZERO PUSH2 0x162 JUMPI PUSH1 0x0 PUSH1 0x1 DUP3 PUSH2 0x111 SWAP2 SWAP1 PUSH2 0x555 JUMP JUMPDEST DUP2 SLOAD DUP2 LT PUSH2 0x122 JUMPI PUSH2 0x121 PUSH2 0x5AB JUMP JUMPDEST JUMPDEST SWAP1 PUSH1 0x0 MSTORE PUSH1 0x20 PUSH1 0x0 KECCAK256 ADD SLOAD PUSH1 0x0 DUP3 DUP2 SLOAD DUP2 LT PUSH2 0x141 JUMPI PUSH2 0x140 PUSH2 0x5AB JUMP JUMPDEST JUMPDEST SWAP1 PUSH1 0x0 MSTORE PUSH1 0x20 PUSH1 0x0 KECCAK256 ADD DUP2 SWAP1 SSTORE POP DUP1 DUP1 PUSH2 0x15A SWAP1 PUSH2 0x5DA JUMP JUMPDEST SWAP2 POP POP PUSH2 0xE9 JUMP JUMPDEST POP PUSH1 0x0 DUP1 SLOAD DUP1 PUSH2 0x175 JUMPI PUSH2 0x174 PUSH2 0x622 JUMP JUMPDEST JUMPDEST PUSH1 0x1 SWAP1 SUB DUP2 DUP2 SWAP1 PUSH1 0x0 MSTORE PUSH1 0x20 PUSH1 0x0 KECCAK256 ADD PUSH1 0x0 SWAP1 SSTORE SWAP1 SSTORE POP JUMP JUMPDEST PUSH1 0x0 DUP2 DUP2 SLOAD DUP2 LT PUSH2 0x19E JUMPI PUSH1 0x0 DUP1 REVERT JUMPDEST SWAP1 PUSH1 0x0 MSTORE PUSH1 0x20 PUSH1 0x0 KECCAK256 ADD PUSH1 0x0 SWAP2 POP SWAP1 POP SLOAD DUP2 JUMP JUMPDEST PUSH1 0x40 MLOAD DUP1 PUSH1 0xA0 ADD PUSH1 0x40 MSTORE DUP1 PUSH1 0x1 PUSH1 0xFF AND DUP2 MSTORE PUSH1 0x20 ADD PUSH1 0x2 PUSH1 0xFF AND DUP2 MSTORE PUSH1 0x20 ADD PUSH1 0x3 PUSH1 0xFF AND DUP2 MSTORE PUSH1 0x20 ADD PUSH1 0x4 PUSH1 0xFF AND DUP2 MSTORE PUSH1 0x20 ADD PUSH1 0x5 PUSH1 0xFF AND DUP2 MSTORE POP PUSH1 0x0 SWAP1 PUSH1 0x5 PUSH2 0x1FD SWAP3 SWAP2 SWAP1 PUSH2 0x322 JUMP JUMPDEST POP PUSH2 0x208 PUSH1 0x2 PUSH2 0x9C JUMP JUMPDEST PUSH1 0x1 PUSH1 0x0 DUP1 DUP2 SLOAD DUP2 LT PUSH2 0x21E JUMPI PUSH2 0x21D PUSH2 0x5AB JUMP JUMPDEST JUMPDEST SWAP1 PUSH1 0x0 MSTORE PUSH1 0x20 PUSH1 0x0 KECCAK256 ADD SLOAD EQ PUSH2 0x237 JUMPI PUSH2 0x236 PUSH2 0x651 JUMP JUMPDEST JUMPDEST PUSH1 0x2 PUSH1 0x0 PUSH1 0x1 DUP2 SLOAD DUP2 LT PUSH2 0x24E JUMPI PUSH2 0x24D PUSH2 0x5AB JUMP JUMPDEST JUMPDEST SWAP1 PUSH1 0x0 MSTORE PUSH1 0x20 PUSH1 0x0 KECCAK256 ADD SLOAD EQ PUSH2 0x267 JUMPI PUSH2 0x266 PUSH2 0x651 JUMP JUMPDEST JUMPDEST PUSH1 0x4 PUSH1 0x0 PUSH1 0x2 DUP2 SLOAD DUP2 LT PUSH2 0x27E JUMPI PUSH2 0x27D PUSH2 0x5AB JUMP JUMPDEST JUMPDEST SWAP1 PUSH1 0x0 MSTORE PUSH1 0x20 PUSH1 0x0 KECCAK256 ADD SLOAD EQ PUSH2 0x297 JUMPI PUSH2 0x296 PUSH2 0x651 JUMP JUMPDEST JUMPDEST PUSH1 0x5 PUSH1 0x0 PUSH1 0x3 DUP2 SLOAD DUP2 LT PUSH2 0x2AE JUMPI PUSH2 0x2AD PUSH2 0x5AB JUMP JUMPDEST JUMPDEST SWAP1 PUSH1 0x0 MSTORE PUSH1 0x20 PUSH1 0x0 KECCAK256 ADD SLOAD EQ PUSH2 0x2C7 JUMPI PUSH2 0x2C6 PUSH2 0x651 JUMP JUMPDEST JUMPDEST PUSH1 0x4 PUSH1 0x0 DUP1 SLOAD SWAP1 POP EQ PUSH2 0x2DD JUMPI PUSH2 0x2DC PUSH2 0x651 JUMP JUMPDEST JUMPDEST PUSH1 0x40 MLOAD DUP1 PUSH1 0x20 ADD PUSH1 0x40 MSTORE DUP1 PUSH1 0x1 PUSH1 0xFF AND DUP2 MSTORE POP PUSH1 0x0 SWAP1 PUSH1 0x1 PUSH2 0x300 SWAP3 SWAP2 SWAP1 PUSH2 0x374 JUMP JUMPDEST POP PUSH2 0x30B PUSH1 0x0 PUSH2 0x9C JUMP JUMPDEST PUSH1 0x0 DUP1 DUP1 SLOAD SWAP1 POP EQ PUSH2 0x320 JUMPI PUSH2 0x31F PUSH2 0x651 JUMP JUMPDEST JUMPDEST JUMP JUMPDEST DUP3 DUP1 SLOAD DUP3 DUP3 SSTORE SWAP1 PUSH1 0x0 MSTORE PUSH1 0x20 PUSH1 0x0 KECCAK256 SWAP1 DUP2 ADD SWAP3 DUP3 ISZERO PUSH2 0x363 JUMPI SWAP2 PUSH1 0x20 MUL DUP3 ADD JUMPDEST DUP3 DUP2 GT ISZERO PUSH2 0x362 JUMPI DUP3 MLOAD DUP3 SWAP1 PUSH1 0xFF AND SWAP1 SSTORE SWAP2 PUSH1 0x20 ADD SWAP2 SWAP1 PUSH1 0x1 ADD SWAP1 PUSH2 0x342 JUMP JUMPDEST JUMPDEST POP SWAP1 POP PUSH2 0x370 SWAP2 SWAP1 PUSH2 0x3C6 JUMP JUMPDEST POP SWAP1 JUMP JUMPDEST DUP3 DUP1 SLOAD DUP3 DUP3 SSTORE SWAP1 PUSH1 0x0 MSTORE PUSH1 0x20 PUSH1 0x0 KECCAK256 SWAP1 DUP2 ADD SWAP3 DUP3 ISZERO PUSH2 0x3B5 JUMPI SWAP2 PUSH1 0x20 MUL DUP3 ADD JUMPDEST DUP3 DUP2 GT ISZERO PUSH2 0x3B4 JUMPI DUP3 MLOAD DUP3 SWAP1 PUSH1 0xFF AND SWAP1 SSTORE SWAP2 PUSH1 0x20 ADD SWAP2 SWAP1 PUSH1 0x1 ADD SWAP1 PUSH2 0x394 JUMP JUMPDEST JUMPDEST POP SWAP1 POP PUSH2 0x3C2 SWAP2 SWAP1 PUSH2 0x3C6 JUMP JUMPDEST POP SWAP1 JUMP JUMPDEST JUMPDEST DUP1 DUP3 GT ISZERO PUSH2 0x3DF JUMPI PUSH1 0x0 DUP2 PUSH1 0x0 SWAP1 SSTORE POP PUSH1 0x1 ADD PUSH2 0x3C7 JUMP JUMPDEST POP SWAP1 JUMP JUMPDEST PUSH1 0x0 DUP1 REVERT JUMPDEST PUSH1 0x0 DUP2 SWAP1 POP SWAP2 SWAP1 POP JUMP JUMPDEST PUSH2 0x3FB DUP2 PUSH2 0x3E8 JUMP JUMPDEST DUP2 EQ PUSH2 0x406 JUMPI PUSH1 0x0 DUP1 REVERT JUMPDEST POP JUMP JUMPDEST PUSH1 0x0 DUP2 CALLDATALOAD SWAP1 POP PUSH2 0x418 DUP2 PUSH2 0x3F2 JUMP JUMPDEST SWAP3 SWAP2 POP POP JUMP JUMPDEST PUSH1 0x0 PUSH1 0x20 DUP3 DUP5 SUB SLT ISZERO PUSH2 0x434 JUMPI PUSH2 0x433 PUSH2 0x3E3 JUMP JUMPDEST JUMPDEST PUSH1 0x0 PUSH2 0x442 DUP5 DUP3 DUP6 ADD PUSH2 0x409 JUMP JUMPDEST SWAP2 POP POP SWAP3 SWAP2 POP POP JUMP JUMPDEST PUSH2 0x454 DUP2 PUSH2 0x3E8 JUMP JUMPDEST DUP3 MSTORE POP POP JUMP JUMPDEST PUSH1 0x0 PUSH1 0x20 DUP3 ADD SWAP1 POP PUSH2 0x46F PUSH1 0x0 DUP4 ADD DUP5 PUSH2 0x44B JUMP JUMPDEST SWAP3 SWAP2 POP POP JUMP JUMPDEST PUSH1 0x0 DUP3 DUP3 MSTORE PUSH1 0x20 DUP3 ADD SWAP1 POP SWAP3 SWAP2 POP POP JUMP JUMPDEST PUSH32 0x696E646578206F7574206F6620626F756E640000000000000000000000000000 PUSH1 0x0 DUP3 ADD MSTORE POP JUMP JUMPDEST PUSH1 0x0 PUSH2 0x4BC PUSH1 0x12 DUP4 PUSH2 0x475 JUMP JUMPDEST SWAP2 POP PUSH2 0x4C7 DUP3 PUSH2 0x486 JUMP JUMPDEST PUSH1 0x20 DUP3 ADD SWAP1 POP SWAP2 SWAP1 POP JUMP JUMPDEST PUSH1 0x0 PUSH1 0x20 DUP3 ADD SWAP1 POP DUP2 DUP2 SUB PUSH1 0x0 DUP4 ADD MSTORE PUSH2 0x4EB DUP2 PUSH2 0x4AF JUMP JUMPDEST SWAP1 POP SWAP2 SWAP1 POP JUMP JUMPDEST PUSH32 0x4E487B7100000000000000000000000000000000000000000000000000000000 PUSH1 0x0 MSTORE PUSH1 0x11 PUSH1 0x4 MSTORE PUSH1 0x24 PUSH1 0x0 REVERT JUMPDEST PUSH1 0x0 PUSH2 0x52C DUP3 PUSH2 0x3E8 JUMP JUMPDEST SWAP2 POP PUSH2 0x537 DUP4 PUSH2 0x3E8 JUMP JUMPDEST SWAP3 POP DUP3 DUP3 LT ISZERO PUSH2 0x54A JUMPI PUSH2 0x549 PUSH2 0x4F2 JUMP JUMPDEST JUMPDEST DUP3 DUP3 SUB SWAP1 POP SWAP3 SWAP2 POP POP JUMP JUMPDEST PUSH1 0x0 PUSH2 0x560 DUP3 PUSH2 0x3E8 JUMP JUMPDEST SWAP2 POP PUSH2 0x56B DUP4 PUSH2 0x3E8 JUMP JUMPDEST SWAP3 POP DUP3 PUSH32 0xFFFFFFFFFFFFFFFFFFFFFFFFFFFFFFFFFFFFFFFFFFFFFFFFFFFFFFFFFFFFFFFF SUB DUP3 GT ISZERO PUSH2 0x5A0 JUMPI PUSH2 0x59F PUSH2 0x4F2 JUMP JUMPDEST JUMPDEST DUP3 DUP3 ADD SWAP1 POP SWAP3 SWAP2 POP POP JUMP JUMPDEST PUSH32 0x4E487B7100000000000000000000000000000000000000000000000000000000 PUSH1 0x0 MSTORE PUSH1 0x32 PUSH1 0x4 MSTORE PUSH1 0x24 PUSH1 0x0 REVERT JUMPDEST PUSH1 0x0 PUSH2 0x5E5 DUP3 PUSH2 0x3E8 JUMP JUMPDEST SWAP2 POP PUSH32 0xFFFFFFFFFFFFFFFFFFFFFFFFFFFFFFFFFFFFFFFFFFFFFFFFFFFFFFFFFFFFFFFF DUP3 SUB PUSH2 0x617 JUMPI PUSH2 0x616 PUSH2 0x4F2 JUMP JUMPDEST JUMPDEST PUSH1 0x1 DUP3 ADD SWAP1 POP SWAP2 SWAP1 POP JUMP JUMPDEST PUSH32 0x4E487B7100000000000000000000000000000000000000000000000000000000 PUSH1 0x0 MSTORE PUSH1 0x31 PUSH1 0x4 MSTORE PUSH1 0x24 PUSH1 0x0 REVERT JUMPDEST PUSH32 0x4E487B7100000000000000000000000000000000000000000000000000000000 PUSH1 0x0 MSTORE PUSH1 0x1 PUSH1 0x4 MSTORE PUSH1 0x24 PUSH1 0x0 REVERT INVALID LOG2 PUSH5 0x6970667358 0x22 SLT KECCAK256 DUP1 RETURNDATACOPY NOT 0xBB CALLCODE 0x4C 0xA8 PUSH9 0xD699F252EB5DD7C118 0xC6 NOT DELEGATECALL BYTE MULMOD COINBASE TIMESTAMP ADD 0xFB 0xD1 PUSH12 0x1939AFCF64736F6C63430008 0xF STOP CALLER "
				},
				"gasEstimates": {
					"creation": {
						"codeDepositCost": "343600",
						"executionCost": "380",
						"totalCost": "343980"
					},
					"external": {
						"arr(uint256)": "infinite",
						"remove(uint256)": "infinite",
						"test()": "infinite"
					}
				},
				"methodIdentifiers": {
					"arr(uint256)": "71e5ee5f",
					"remove(uint256)": "4cc82215",
					"test()": "f8a8fd6d"
				}
			},
			"storageLayout": {
				"storage": [
					{
						"astId": 101,
						"contract": "contracts/Arrays.sol:ArrayRemoveByShifting",
						"label": "arr",
						"offset": 0,
						"slot": "0",
						"type": "t_array(t_uint256)dyn_storage"
					}
				],
				"types": {
					"t_array(t_uint256)dyn_storage": {
						"base": "t_uint256",
						"encoding": "dynamic_array",
						"label": "uint256[]",
						"numberOfBytes": "32"
					},
					"t_uint256": {
						"encoding": "inplace",
						"label": "uint256",
						"numberOfBytes": "32"
					}
				}
			},
			"userdoc": {
				"kind": "user",
				"methods": {},
				"version": 1
			}
		}
	}
}