{
	"contracts/Arrays.sol": {
		"ArrayReplaceFromEnd": {
			"abi": [
				{
					"inputs": [
						{
							"internalType": "uint256",
							"name": "",
							"type": "uint256"
						}
					],
					"name": "arr",
					"outputs": [
						{
							"internalType": "uint256",
							"name": "",
							"type": "uint256"
						}
					],
					"stateMutability": "view",
					"type": "function"
				},
				{
					"inputs": [
						{
							"internalType": "uint256",
							"name": "index",
							"type": "uint256"
						}
					],
					"name": "remove",
					"outputs": [],
					"stateMutability": "nonpayable",
					"type": "function"
				},
				{
					"inputs": [],
					"name": "test",
					"outputs": [],
					"stateMutability": "nonpayable",
					"type": "function"
				}
			],
			"devdoc": {
				"kind": "dev",
				"methods": {},
				"version": 1
			},
			"evm": {
				"assembly": "    /* \"contracts/Arrays.sol\":2234:3004  contract ArrayReplaceFromEnd {... */\n  mstore(0x40, 0x80)\n  callvalue\n  dup1\n  iszero\n  tag_1\n  jumpi\n  0x00\n  dup1\n  revert\ntag_1:\n  pop\n  dataSize(sub_0)\n  dup1\n  dataOffset(sub_0)\n  0x00\n  codecopy\n  0x00\n  return\nstop\n\nsub_0: assembly {\n        /* \"contracts/Arrays.sol\":2234:3004  contract ArrayReplaceFromEnd {... */\n      mstore(0x40, 0x80)\n      callvalue\n      dup1\n      iszero\n      tag_1\n      jumpi\n      0x00\n      dup1\n      revert\n    tag_1:\n      pop\n      jumpi(tag_2, lt(calldatasize, 0x04))\n      shr(0xe0, calldataload(0x00))\n      dup1\n      0x4cc82215\n      eq\n      tag_3\n      jumpi\n      dup1\n      0x71e5ee5f\n      eq\n      tag_4\n      jumpi\n      dup1\n      0xf8a8fd6d\n      eq\n      tag_5\n      jumpi\n    tag_2:\n      0x00\n      dup1\n      revert\n        /* \"contracts/Arrays.sol\":2452:2648  function remove(uint index) public {... */\n    tag_3:\n      tag_6\n      0x04\n      dup1\n      calldatasize\n      sub\n      dup2\n      add\n      swap1\n      tag_7\n      swap2\n      swap1\n      tag_8\n      jump\t// in\n    tag_7:\n      tag_9\n      jump\t// in\n    tag_6:\n      stop\n        /* \"contracts/Arrays.sol\":2269:2286  uint[] public arr */\n    tag_4:\n      tag_10\n      0x04\n      dup1\n      calldatasize\n      sub\n      dup2\n      add\n      swap1\n      tag_11\n      swap2\n      swap1\n      tag_8\n      jump\t// in\n    tag_11:\n      tag_12\n      jump\t// in\n    tag_10:\n      mload(0x40)\n      tag_13\n      swap2\n      swap1\n      tag_14\n      jump\t// in\n    tag_13:\n      mload(0x40)\n      dup1\n      swap2\n      sub\n      swap1\n      return\n        /* \"contracts/Arrays.sol\":2654:3002  function test() public {... */\n    tag_5:\n      tag_15\n      tag_16\n      jump\t// in\n    tag_15:\n      stop\n        /* \"contracts/Arrays.sol\":2452:2648  function remove(uint index) public {... */\n    tag_9:\n        /* \"contracts/Arrays.sol\":2568:2571  arr */\n      0x00\n        /* \"contracts/Arrays.sol\":2585:2586  1 */\n      0x01\n        /* \"contracts/Arrays.sol\":2572:2575  arr */\n      0x00\n        /* \"contracts/Arrays.sol\":2572:2582  arr.length */\n      dup1\n      sload\n      swap1\n      pop\n        /* \"contracts/Arrays.sol\":2572:2586  arr.length - 1 */\n      tag_18\n      swap2\n      swap1\n      tag_19\n      jump\t// in\n    tag_18:\n        /* \"contracts/Arrays.sol\":2568:2587  arr[arr.length - 1] */\n      dup2\n      sload\n      dup2\n      lt\n      tag_20\n      jumpi\n      tag_21\n      tag_22\n      jump\t// in\n    tag_21:\n    tag_20:\n      swap1\n      0x00\n      mstore\n      keccak256(0x00, 0x20)\n      add\n      sload\n        /* \"contracts/Arrays.sol\":2555:2558  arr */\n      0x00\n        /* \"contracts/Arrays.sol\":2559:2564  index */\n      dup3\n        /* \"contracts/Arrays.sol\":2555:2565  arr[index] */\n      dup2\n      sload\n      dup2\n      lt\n      tag_24\n      jumpi\n      tag_25\n      tag_22\n      jump\t// in\n    tag_25:\n    tag_24:\n      swap1\n      0x00\n      mstore\n      keccak256(0x00, 0x20)\n      add\n        /* \"contracts/Arrays.sol\":2555:2587  arr[index] = arr[arr.length - 1] */\n      dup2\n      swap1\n      sstore\n      pop\n        /* \"contracts/Arrays.sol\":2632:2635  arr */\n      0x00\n        /* \"contracts/Arrays.sol\":2632:2641  arr.pop() */\n      dup1\n      sload\n      dup1\n      tag_27\n      jumpi\n      tag_28\n      tag_29\n      jump\t// in\n    tag_28:\n    tag_27:\n      0x01\n      swap1\n      sub\n      dup2\n      dup2\n      swap1\n      0x00\n      mstore\n      keccak256(0x00, 0x20)\n      add\n      0x00\n      swap1\n      sstore\n      swap1\n      sstore\n        /* \"contracts/Arrays.sol\":2452:2648  function remove(uint index) public {... */\n      pop\n      jump\t// out\n        /* \"contracts/Arrays.sol\":2269:2286  uint[] public arr */\n    tag_12:\n      0x00\n      dup2\n      dup2\n      sload\n      dup2\n      lt\n      tag_31\n      jumpi\n      0x00\n      dup1\n      revert\n    tag_31:\n      swap1\n      0x00\n      mstore\n      keccak256(0x00, 0x20)\n      add\n      0x00\n      swap2\n      pop\n      swap1\n      pop\n      sload\n      dup2\n      jump\t// out\n        /* \"contracts/Arrays.sol\":2654:3002  function test() public {... */\n    tag_16:\n        /* \"contracts/Arrays.sol\":2687:2705  arr = [1, 2, 3, 4] */\n      mload(0x40)\n      dup1\n      0x80\n      add\n      0x40\n      mstore\n      dup1\n        /* \"contracts/Arrays.sol\":2694:2695  1 */\n      0x01\n        /* \"contracts/Arrays.sol\":2687:2705  arr = [1, 2, 3, 4] */\n      0xff\n      and\n      dup2\n      mstore\n      0x20\n      add\n        /* \"contracts/Arrays.sol\":2697:2698  2 */\n      0x02\n        /* \"contracts/Arrays.sol\":2687:2705  arr = [1, 2, 3, 4] */\n      0xff\n      and\n      dup2\n      mstore\n      0x20\n      add\n        /* \"contracts/Arrays.sol\":2700:2701  3 */\n      0x03\n        /* \"contracts/Arrays.sol\":2687:2705  arr = [1, 2, 3, 4] */\n      0xff\n      and\n      dup2\n      mstore\n      0x20\n      add\n        /* \"contracts/Arrays.sol\":2703:2704  4 */\n      0x04\n        /* \"contracts/Arrays.sol\":2687:2705  arr = [1, 2, 3, 4] */\n      0xff\n      and\n      dup2\n      mstore\n      pop\n        /* \"contracts/Arrays.sol\":2687:2690  arr */\n      0x00\n        /* \"contracts/Arrays.sol\":2687:2705  arr = [1, 2, 3, 4] */\n      swap1\n      0x04\n      tag_34\n      swap3\n      swap2\n      swap1\n      tag_35\n      jump\t// in\n    tag_34:\n      pop\n        /* \"contracts/Arrays.sol\":2716:2725  remove(1) */\n      tag_36\n        /* \"contracts/Arrays.sol\":2723:2724  1 */\n      0x01\n        /* \"contracts/Arrays.sol\":2716:2722  remove */\n      tag_9\n        /* \"contracts/Arrays.sol\":2716:2725  remove(1) */\n      jump\t// in\n    tag_36:\n        /* \"contracts/Arrays.sol\":2777:2778  3 */\n      0x03\n        /* \"contracts/Arrays.sol\":2763:2766  arr */\n      0x00\n        /* \"contracts/Arrays.sol\":2763:2773  arr.length */\n      dup1\n      sload\n      swap1\n      pop\n        /* \"contracts/Arrays.sol\":2763:2778  arr.length == 3 */\n      eq\n        /* \"contracts/Arrays.sol\":2756:2779  assert(arr.length == 3) */\n      tag_37\n      jumpi\n      tag_38\n      tag_39\n      jump\t// in\n    tag_38:\n    tag_37:\n        /* \"contracts/Arrays.sol\":2806:2807  1 */\n      0x01\n        /* \"contracts/Arrays.sol\":2796:2799  arr */\n      0x00\n        /* \"contracts/Arrays.sol\":2800:2801  0 */\n      dup1\n        /* \"contracts/Arrays.sol\":2796:2802  arr[0] */\n      dup2\n      sload\n      dup2\n      lt\n      tag_40\n      jumpi\n      tag_41\n      tag_22\n      jump\t// in\n    tag_41:\n    tag_40:\n      swap1\n      0x00\n      mstore\n      keccak256(0x00, 0x20)\n      add\n      sload\n        /* \"contracts/Arrays.sol\":2796:2807  arr[0] == 1 */\n      eq\n        /* \"contracts/Arrays.sol\":2789:2808  assert(arr[0] == 1) */\n      tag_43\n      jumpi\n      tag_44\n      tag_39\n      jump\t// in\n    tag_44:\n    tag_43:\n        /* \"contracts/Arrays.sol\":2835:2836  4 */\n      0x04\n        /* \"contracts/Arrays.sol\":2825:2828  arr */\n      0x00\n        /* \"contracts/Arrays.sol\":2829:2830  1 */\n      0x01\n        /* \"contracts/Arrays.sol\":2825:2831  arr[1] */\n      dup2\n      sload\n      dup2\n      lt\n      tag_45\n      jumpi\n      tag_46\n      tag_22\n      jump\t// in\n    tag_46:\n    tag_45:\n      swap1\n      0x00\n      mstore\n      keccak256(0x00, 0x20)\n      add\n      sload\n        /* \"contracts/Arrays.sol\":2825:2836  arr[1] == 4 */\n      eq\n        /* \"contracts/Arrays.sol\":2818:2837  assert(arr[1] == 4) */\n      tag_48\n      jumpi\n      tag_49\n      tag_39\n      jump\t// in\n    tag_49:\n    tag_48:\n        /* \"contracts/Arrays.sol\":2864:2865  3 */\n      0x03\n        /* \"contracts/Arrays.sol\":2854:2857  arr */\n      0x00\n        /* \"contracts/Arrays.sol\":2858:2859  2 */\n      0x02\n        /* \"contracts/Arrays.sol\":2854:2860  arr[2] */\n      dup2\n      sload\n      dup2\n      lt\n      tag_50\n      jumpi\n      tag_51\n      tag_22\n      jump\t// in\n    tag_51:\n    tag_50:\n      swap1\n      0x00\n      mstore\n      keccak256(0x00, 0x20)\n      add\n      sload\n        /* \"contracts/Arrays.sol\":2854:2865  arr[2] == 3 */\n      eq\n        /* \"contracts/Arrays.sol\":2847:2866  assert(arr[2] == 3) */\n      tag_53\n      jumpi\n      tag_54\n      tag_39\n      jump\t// in\n    tag_54:\n    tag_53:\n        /* \"contracts/Arrays.sol\":2877:2886  remove(2) */\n      tag_55\n        /* \"contracts/Arrays.sol\":2884:2885  2 */\n      0x02\n        /* \"contracts/Arrays.sol\":2877:2883  remove */\n      tag_9\n        /* \"contracts/Arrays.sol\":2877:2886  remove(2) */\n      jump\t// in\n    tag_55:\n        /* \"contracts/Arrays.sol\":2935:2936  2 */\n      0x02\n        /* \"contracts/Arrays.sol\":2921:2924  arr */\n      0x00\n        /* \"contracts/Arrays.sol\":2921:2931  arr.length */\n      dup1\n      sload\n      swap1\n      pop\n        /* \"contracts/Arrays.sol\":2921:2936  arr.length == 2 */\n      eq\n        /* \"contracts/Arrays.sol\":2914:2937  assert(arr.length == 2) */\n      tag_56\n      jumpi\n      tag_57\n      tag_39\n      jump\t// in\n    tag_57:\n    tag_56:\n        /* \"contracts/Arrays.sol\":2964:2965  1 */\n      0x01\n        /* \"contracts/Arrays.sol\":2954:2957  arr */\n      0x00\n        /* \"contracts/Arrays.sol\":2958:2959  0 */\n      dup1\n        /* \"contracts/Arrays.sol\":2954:2960  arr[0] */\n      dup2\n      sload\n      dup2\n      lt\n      tag_58\n      jumpi\n      tag_59\n      tag_22\n      jump\t// in\n    tag_59:\n    tag_58:\n      swap1\n      0x00\n      mstore\n      keccak256(0x00, 0x20)\n      add\n      sload\n        /* \"contracts/Arrays.sol\":2954:2965  arr[0] == 1 */\n      eq\n        /* \"contracts/Arrays.sol\":2947:2966  assert(arr[0] == 1) */\n      tag_61\n      jumpi\n      tag_62\n      tag_39\n      jump\t// in\n    tag_62:\n    tag_61:\n        /* \"contracts/Arrays.sol\":2993:2994  4 */\n      0x04\n        /* \"contracts/Arrays.sol\":2983:2986  arr */\n      0x00\n        /* \"contracts/Arrays.sol\":2987:2988  1 */\n      0x01\n        /* \"contracts/Arrays.sol\":2983:2989  arr[1] */\n      dup2\n      sload\n      dup2\n      lt\n      tag_63\n      jumpi\n      tag_64\n      tag_22\n      jump\t// in\n    tag_64:\n    tag_63:\n      swap1\n      0x00\n      mstore\n      keccak256(0x00, 0x20)\n      add\n      sload\n        /* \"contracts/Arrays.sol\":2983:2994  arr[1] == 4 */\n      eq\n        /* \"contracts/Arrays.sol\":2976:2995  assert(arr[1] == 4) */\n      tag_66\n      jumpi\n      tag_67\n      tag_39\n      jump\t// in\n    tag_67:\n    tag_66:\n        /* \"contracts/Arrays.sol\":2654:3002  function test() public {... */\n      jump\t// out\n    tag_35:\n      dup3\n      dup1\n      sload\n      dup3\n      dup3\n      sstore\n      swap1\n      0x00\n      mstore\n      keccak256(0x00, 0x20)\n      swap1\n      dup2\n      add\n      swap3\n      dup3\n      iszero\n      tag_68\n      jumpi\n      swap2\n      0x20\n      mul\n      dup3\n      add\n    tag_69:\n      dup3\n      dup2\n      gt\n      iszero\n      tag_70\n      jumpi\n      dup3\n      mload\n      dup3\n      swap1\n      0xff\n      and\n      swap1\n      sstore\n      swap2\n      0x20\n      add\n      swap2\n      swap1\n      0x01\n      add\n      swap1\n      jump(tag_69)\n    tag_70:\n    tag_68:\n      pop\n      swap1\n      pop\n      tag_71\n      swap2\n      swap1\n      tag_72\n      jump\t// in\n    tag_71:\n      pop\n      swap1\n      jump\t// out\n    tag_72:\n    tag_73:\n      dup1\n      dup3\n      gt\n      iszero\n      tag_74\n      jumpi\n      0x00\n      dup2\n      0x00\n      swap1\n      sstore\n      pop\n      0x01\n      add\n      jump(tag_73)\n    tag_74:\n      pop\n      swap1\n      jump\t// out\n        /* \"#utility.yul\":88:205   */\n    tag_76:\n        /* \"#utility.yul\":197:198   */\n      0x00\n        /* \"#utility.yul\":194:195   */\n      dup1\n        /* \"#utility.yul\":187:199   */\n      revert\n        /* \"#utility.yul\":334:411   */\n    tag_78:\n        /* \"#utility.yul\":371:378   */\n      0x00\n        /* \"#utility.yul\":400:405   */\n      dup2\n        /* \"#utility.yul\":389:405   */\n      swap1\n      pop\n        /* \"#utility.yul\":334:411   */\n      swap2\n      swap1\n      pop\n      jump\t// out\n        /* \"#utility.yul\":417:539   */\n    tag_79:\n        /* \"#utility.yul\":490:514   */\n      tag_89\n        /* \"#utility.yul\":508:513   */\n      dup2\n        /* \"#utility.yul\":490:514   */\n      tag_78\n      jump\t// in\n    tag_89:\n        /* \"#utility.yul\":483:488   */\n      dup2\n        /* \"#utility.yul\":480:515   */\n      eq\n        /* \"#utility.yul\":470:533   */\n      tag_90\n      jumpi\n        /* \"#utility.yul\":529:530   */\n      0x00\n        /* \"#utility.yul\":526:527   */\n      dup1\n        /* \"#utility.yul\":519:531   */\n      revert\n        /* \"#utility.yul\":470:533   */\n    tag_90:\n        /* \"#utility.yul\":417:539   */\n      pop\n      jump\t// out\n        /* \"#utility.yul\":545:684   */\n    tag_80:\n        /* \"#utility.yul\":591:596   */\n      0x00\n        /* \"#utility.yul\":629:635   */\n      dup2\n        /* \"#utility.yul\":616:636   */\n      calldataload\n        /* \"#utility.yul\":607:636   */\n      swap1\n      pop\n        /* \"#utility.yul\":645:678   */\n      tag_92\n        /* \"#utility.yul\":672:677   */\n      dup2\n        /* \"#utility.yul\":645:678   */\n      tag_79\n      jump\t// in\n    tag_92:\n        /* \"#utility.yul\":545:684   */\n      swap3\n      swap2\n      pop\n      pop\n      jump\t// out\n        /* \"#utility.yul\":690:1019   */\n    tag_8:\n        /* \"#utility.yul\":749:755   */\n      0x00\n        /* \"#utility.yul\":798:800   */\n      0x20\n        /* \"#utility.yul\":786:795   */\n      dup3\n        /* \"#utility.yul\":777:784   */\n      dup5\n        /* \"#utility.yul\":773:796   */\n      sub\n        /* \"#utility.yul\":769:801   */\n      slt\n        /* \"#utility.yul\":766:885   */\n      iszero\n      tag_94\n      jumpi\n        /* \"#utility.yul\":804:883   */\n      tag_95\n      tag_76\n      jump\t// in\n    tag_95:\n        /* \"#utility.yul\":766:885   */\n    tag_94:\n        /* \"#utility.yul\":924:925   */\n      0x00\n        /* \"#utility.yul\":949:1002   */\n      tag_96\n        /* \"#utility.yul\":994:1001   */\n      dup5\n        /* \"#utility.yul\":985:991   */\n      dup3\n        /* \"#utility.yul\":974:983   */\n      dup6\n        /* \"#utility.yul\":970:992   */\n      add\n        /* \"#utility.yul\":949:1002   */\n      tag_80\n      jump\t// in\n    tag_96:\n        /* \"#utility.yul\":939:1002   */\n      swap2\n      pop\n        /* \"#utility.yul\":895:1012   */\n      pop\n        /* \"#utility.yul\":690:1019   */\n      swap3\n      swap2\n      pop\n      pop\n      jump\t// out\n        /* \"#utility.yul\":1025:1143   */\n    tag_81:\n        /* \"#utility.yul\":1112:1136   */\n      tag_98\n        /* \"#utility.yul\":1130:1135   */\n      dup2\n        /* \"#utility.yul\":1112:1136   */\n      tag_78\n      jump\t// in\n    tag_98:\n        /* \"#utility.yul\":1107:1110   */\n      dup3\n        /* \"#utility.yul\":1100:1137   */\n      mstore\n        /* \"#utility.yul\":1025:1143   */\n      pop\n      pop\n      jump\t// out\n        /* \"#utility.yul\":1149:1371   */\n    tag_14:\n        /* \"#utility.yul\":1242:1246   */\n      0x00\n        /* \"#utility.yul\":1280:1282   */\n      0x20\n        /* \"#utility.yul\":1269:1278   */\n      dup3\n        /* \"#utility.yul\":1265:1283   */\n      add\n        /* \"#utility.yul\":1257:1283   */\n      swap1\n      pop\n        /* \"#utility.yul\":1293:1364   */\n      tag_100\n        /* \"#utility.yul\":1361:1362   */\n      0x00\n        /* \"#utility.yul\":1350:1359   */\n      dup4\n        /* \"#utility.yul\":1346:1363   */\n      add\n        /* \"#utility.yul\":1337:1343   */\n      dup5\n        /* \"#utility.yul\":1293:1364   */\n      tag_81\n      jump\t// in\n    tag_100:\n        /* \"#utility.yul\":1149:1371   */\n      swap3\n      swap2\n      pop\n      pop\n      jump\t// out\n        /* \"#utility.yul\":1377:1557   */\n    tag_82:\n        /* \"#utility.yul\":1425:1502   */\n      0x4e487b7100000000000000000000000000000000000000000000000000000000\n        /* \"#utility.yul\":1422:1423   */\n      0x00\n        /* \"#utility.yul\":1415:1503   */\n      mstore\n        /* \"#utility.yul\":1522:1526   */\n      0x11\n        /* \"#utility.yul\":1519:1520   */\n      0x04\n        /* \"#utility.yul\":1512:1527   */\n      mstore\n        /* \"#utility.yul\":1546:1550   */\n      0x24\n        /* \"#utility.yul\":1543:1544   */\n      0x00\n        /* \"#utility.yul\":1536:1551   */\n      revert\n        /* \"#utility.yul\":1563:1754   */\n    tag_19:\n        /* \"#utility.yul\":1603:1607   */\n      0x00\n        /* \"#utility.yul\":1623:1643   */\n      tag_103\n        /* \"#utility.yul\":1641:1642   */\n      dup3\n        /* \"#utility.yul\":1623:1643   */\n      tag_78\n      jump\t// in\n    tag_103:\n        /* \"#utility.yul\":1618:1643   */\n      swap2\n      pop\n        /* \"#utility.yul\":1657:1677   */\n      tag_104\n        /* \"#utility.yul\":1675:1676   */\n      dup4\n        /* \"#utility.yul\":1657:1677   */\n      tag_78\n      jump\t// in\n    tag_104:\n        /* \"#utility.yul\":1652:1677   */\n      swap3\n      pop\n        /* \"#utility.yul\":1696:1697   */\n      dup3\n        /* \"#utility.yul\":1693:1694   */\n      dup3\n        /* \"#utility.yul\":1690:1698   */\n      lt\n        /* \"#utility.yul\":1687:1721   */\n      iszero\n      tag_105\n      jumpi\n        /* \"#utility.yul\":1701:1719   */\n      tag_106\n      tag_82\n      jump\t// in\n    tag_106:\n        /* \"#utility.yul\":1687:1721   */\n    tag_105:\n        /* \"#utility.yul\":1746:1747   */\n      dup3\n        /* \"#utility.yul\":1743:1744   */\n      dup3\n        /* \"#utility.yul\":1739:1748   */\n      sub\n        /* \"#utility.yul\":1731:1748   */\n      swap1\n      pop\n        /* \"#utility.yul\":1563:1754   */\n      swap3\n      swap2\n      pop\n      pop\n      jump\t// out\n        /* \"#utility.yul\":1760:1940   */\n    tag_22:\n        /* \"#utility.yul\":1808:1885   */\n      0x4e487b7100000000000000000000000000000000000000000000000000000000\n        /* \"#utility.yul\":1805:1806   */\n      0x00\n        /* \"#utility.yul\":1798:1886   */\n      mstore\n        /* \"#utility.yul\":1905:1909   */\n      0x32\n        /* \"#utility.yul\":1902:1903   */\n      0x04\n        /* \"#utility.yul\":1895:1910   */\n      mstore\n        /* \"#utility.yul\":1929:1933   */\n      0x24\n        /* \"#utility.yul\":1926:1927   */\n      0x00\n        /* \"#utility.yul\":1919:1934   */\n      revert\n        /* \"#utility.yul\":1946:2126   */\n    tag_29:\n        /* \"#utility.yul\":1994:2071   */\n      0x4e487b7100000000000000000000000000000000000000000000000000000000\n        /* \"#utility.yul\":1991:1992   */\n      0x00\n        /* \"#utility.yul\":1984:2072   */\n      mstore\n        /* \"#utility.yul\":2091:2095   */\n      0x31\n        /* \"#utility.yul\":2088:2089   */\n      0x04\n        /* \"#utility.yul\":2081:2096   */\n      mstore\n        /* \"#utility.yul\":2115:2119   */\n      0x24\n        /* \"#utility.yul\":2112:2113   */\n      0x00\n        /* \"#utility.yul\":2105:2120   */\n      revert\n        /* \"#utility.yul\":2132:2312   */\n    tag_39:\n        /* \"#utility.yul\":2180:2257   */\n      0x4e487b7100000000000000000000000000000000000000000000000000000000\n        /* \"#utility.yul\":2177:2178   */\n      0x00\n        /* \"#utility.yul\":2170:2258   */\n      mstore\n        /* \"#utility.yul\":2277:2281   */\n      0x01\n        /* \"#utility.yul\":2274:2275   */\n      0x04\n        /* \"#utility.yul\":2267:2282   */\n      mstore\n        /* \"#utility.yul\":2301:2305   */\n      0x24\n        /* \"#utility.yul\":2298:2299   */\n      0x00\n        /* \"#utility.yul\":2291:2306   */\n      revert\n\n    auxdata: 0xa264697066735822122097ef5a673cc605e88439051356aef3f5885af3dab70ecbb22605eb28ecf890b764736f6c634300080f0033\n}\n",
				"bytecode": {
					"linkReferences": {},
					"object": "608060405234801561001057600080fd5b506104d6806100206000396000f3fe608060405234801561001057600080fd5b50600436106100415760003560e01c80634cc822151461004657806371e5ee5f14610062578063f8a8fd6d14610092575b600080fd5b610060600480360381019061005b9190610359565b61009c565b005b61007c60048036038101906100779190610359565b610119565b6040516100899190610395565b60405180910390f35b61009a61013d565b005b600060016000805490506100b091906103df565b815481106100c1576100c0610413565b5b9060005260206000200154600082815481106100e0576100df610413565b5b90600052602060002001819055506000805480610100576100ff610442565b5b6001900381819060005260206000200160009055905550565b6000818154811061012957600080fd5b906000526020600020016000915090505481565b6040518060800160405280600160ff168152602001600260ff168152602001600360ff168152602001600460ff16815250600090600461017e9291906102af565b50610189600161009c565b60036000805490501461019f5761019e610471565b5b6001600080815481106101b5576101b4610413565b5b9060005260206000200154146101ce576101cd610471565b5b600460006001815481106101e5576101e4610413565b5b9060005260206000200154146101fe576101fd610471565b5b6003600060028154811061021557610214610413565b5b90600052602060002001541461022e5761022d610471565b5b610238600261009c565b60026000805490501461024e5761024d610471565b5b60016000808154811061026457610263610413565b5b90600052602060002001541461027d5761027c610471565b5b6004600060018154811061029457610293610413565b5b9060005260206000200154146102ad576102ac610471565b5b565b8280548282559060005260206000209081019282156102f0579160200282015b828111156102ef578251829060ff169055916020019190600101906102cf565b5b5090506102fd9190610301565b5090565b5b8082111561031a576000816000905550600101610302565b5090565b600080fd5b6000819050919050565b61033681610323565b811461034157600080fd5b50565b6000813590506103538161032d565b92915050565b60006020828403121561036f5761036e61031e565b5b600061037d84828501610344565b91505092915050565b61038f81610323565b82525050565b60006020820190506103aa6000830184610386565b92915050565b7f4e487b7100000000000000000000000000000000000000000000000000000000600052601160045260246000fd5b60006103ea82610323565b91506103f583610323565b925082821015610408576104076103b0565b5b828203905092915050565b7f4e487b7100000000000000000000000000000000000000000000000000000000600052603260045260246000fd5b7f4e487b7100000000000000000000000000000000000000000000000000000000600052603160045260246000fd5b7f4e487b7100000000000000000000000000000000000000000000000000000000600052600160045260246000fdfea264697066735822122097ef5a673cc605e88439051356aef3f5885af3dab70ecbb22605eb28ecf890b764736f6c634300080f0033",
					"opcodes": "PUSH1 0x80 PUSH1 0x40 MSTORE CALLVALUE DUP1 ISZERO PUSH2 0x10 JUMPI PUSH1 0x0 DUP1 REVERT JUMPDEST POP PUSH2 0x4D6 DUP1 PUSH2 0x20 PUSH1 0x0 CODECOPY PUSH1 0x0 RETURN INVALID PUSH1 0x80 PUSH1 0x40 MSTORE CALLVALUE DUP1 ISZERO PUSH2 0x10 JUMPI PUSH1 0x0 DUP1 REVERT JUMPDEST POP PUSH1 0x4 CALLDATASIZE LT PUSH2 0x41 JUMPI PUSH1 0x0 CALLDATALOAD PUSH1 0xE0 SHR DUP1 PUSH4 0x4CC82215 EQ PUSH2 0x46 JUMPI DUP1 PUSH4 0x71E5EE5F EQ PUSH2 0x62 JUMPI DUP1 PUSH4 0xF8A8FD6D EQ PUSH2 0x92 JUMPI JUMPDEST PUSH1 0x0 DUP1 REVERT JUMPDEST PUSH2 0x60 PUSH1 0x4 DUP1 CALLDATASIZE SUB DUP2 ADD SWAP1 PUSH2 0x5B SWAP2 SWAP1 PUSH2 0x359 JUMP JUMPDEST PUSH2 0x9C JUMP JUMPDEST STOP JUMPDEST PUSH2 0x7C PUSH1 0x4 DUP1 CALLDATASIZE SUB DUP2 ADD SWAP1 PUSH2 0x77 SWAP2 SWAP1 PUSH2 0x359 JUMP JUMPDEST PUSH2 0x119 JUMP JUMPDEST PUSH1 0x40 MLOAD PUSH2 0x89 SWAP2 SWAP1 PUSH2 0x395 JUMP JUMPDEST PUSH1 0x40 MLOAD DUP1 SWAP2 SUB SWAP1 RETURN JUMPDEST PUSH2 0x9A PUSH2 0x13D JUMP JUMPDEST STOP JUMPDEST PUSH1 0x0 PUSH1 0x1 PUSH1 0x0 DUP1 SLOAD SWAP1 POP PUSH2 0xB0 SWAP2 SWAP1 PUSH2 0x3DF JUMP JUMPDEST DUP2 SLOAD DUP2 LT PUSH2 0xC1 JUMPI PUSH2 0xC0 PUSH2 0x413 JUMP JUMPDEST JUMPDEST SWAP1 PUSH1 0x0 MSTORE PUSH1 0x20 PUSH1 0x0 KECCAK256 ADD SLOAD PUSH1 0x0 DUP3 DUP2 SLOAD DUP2 LT PUSH2 0xE0 JUMPI PUSH2 0xDF PUSH2 0x413 JUMP JUMPDEST JUMPDEST SWAP1 PUSH1 0x0 MSTORE PUSH1 0x20 PUSH1 0x0 KECCAK256 ADD DUP2 SWAP1 SSTORE POP PUSH1 0x0 DUP1 SLOAD DUP1 PUSH2 0x100 JUMPI PUSH2 0xFF PUSH2 0x442 JUMP JUMPDEST JUMPDEST PUSH1 0x1 SWAP1 SUB DUP2 DUP2 SWAP1 PUSH1 0x0 MSTORE PUSH1 0x20 PUSH1 0x0 KECCAK256 ADD PUSH1 0x0 SWAP1 SSTORE SWAP1 SSTORE POP JUMP JUMPDEST PUSH1 0x0 DUP2 DUP2 SLOAD DUP2 LT PUSH2 0x129 JUMPI PUSH1 0x0 DUP1 REVERT JUMPDEST SWAP1 PUSH1 0x0 MSTORE PUSH1 0x20 PUSH1 0x0 KECCAK256 ADD PUSH1 0x0 SWAP2 POP SWAP1 POP SLOAD DUP2 JUMP JUMPDEST PUSH1 0x40 MLOAD DUP1 PUSH1 0x80 ADD PUSH1 0x40 MSTORE DUP1 PUSH1 0x1 PUSH1 0xFF AND DUP2 MSTORE PUSH1 0x20 ADD PUSH1 0x2 PUSH1 0xFF AND DUP2 MSTORE PUSH1 0x20 ADD PUSH1 0x3 PUSH1 0xFF AND DUP2 MSTORE PUSH1 0x20 ADD PUSH1 0x4 PUSH1 0xFF AND DUP2 MSTORE POP PUSH1 0x0 SWAP1 PUSH1 0x4 PUSH2 0x17E SWAP3 SWAP2 SWAP1 PUSH2 0x2AF JUMP JUMPDEST POP PUSH2 0x189 PUSH1 0x1 PUSH2 0x9C JUMP JUMPDEST PUSH1 0x3 PUSH1 0x0 DUP1 SLOAD SWAP1 POP EQ PUSH2 0x19F JUMPI PUSH2 0x19E PUSH2 0x471 JUMP JUMPDEST JUMPDEST PUSH1 0x1 PUSH1 0x0 DUP1 DUP2 SLOAD DUP2 LT PUSH2 0x1B5 JUMPI PUSH2 0x1B4 PUSH2 0x413 JUMP JUMPDEST JUMPDEST SWAP1 PUSH1 0x0 MSTORE PUSH1 0x20 PUSH1 0x0 KECCAK256 ADD SLOAD EQ PUSH2 0x1CE JUMPI PUSH2 0x1CD PUSH2 0x471 JUMP JUMPDEST JUMPDEST PUSH1 0x4 PUSH1 0x0 PUSH1 0x1 DUP2 SLOAD DUP2 LT PUSH2 0x1E5 JUMPI PUSH2 0x1E4 PUSH2 0x413 JUMP JUMPDEST JUMPDEST SWAP1 PUSH1 0x0 MSTORE PUSH1 0x20 PUSH1 0x0 KECCAK256 ADD SLOAD EQ PUSH2 0x1FE JUMPI PUSH2 0x1FD PUSH2 0x471 JUMP JUMPDEST JUMPDEST PUSH1 0x3 PUSH1 0x0 PUSH1 0x2 DUP2 SLOAD DUP2 LT PUSH2 0x215 JUMPI PUSH2 0x214 PUSH2 0x413 JUMP JUMPDEST JUMPDEST SWAP1 PUSH1 0x0 MSTORE PUSH1 0x20 PUSH1 0x0 KECCAK256 ADD SLOAD EQ PUSH2 0x22E JUMPI PUSH2 0x22D PUSH2 0x471 JUMP JUMPDEST JUMPDEST PUSH2 0x238 PUSH1 0x2 PUSH2 0x9C JUMP JUMPDEST PUSH1 0x2 PUSH1 0x0 DUP1 SLOAD SWAP1 POP EQ PUSH2 0x24E JUMPI PUSH2 0x24D PUSH2 0x471 JUMP JUMPDEST JUMPDEST PUSH1 0x1 PUSH1 0x0 DUP1 DUP2 SLOAD DUP2 LT PUSH2 0x264 JUMPI PUSH2 0x263 PUSH2 0x413 JUMP JUMPDEST JUMPDEST SWAP1 PUSH1 0x0 MSTORE PUSH1 0x20 PUSH1 0x0 KECCAK256 ADD SLOAD EQ PUSH2 0x27D JUMPI PUSH2 0x27C PUSH2 0x471 JUMP JUMPDEST JUMPDEST PUSH1 0x4 PUSH1 0x0 PUSH1 0x1 DUP2 SLOAD DUP2 LT PUSH2 0x294 JUMPI PUSH2 0x293 PUSH2 0x413 JUMP JUMPDEST JUMPDEST SWAP1 PUSH1 0x0 MSTORE PUSH1 0x20 PUSH1 0x0 KECCAK256 ADD SLOAD EQ PUSH2 0x2AD JUMPI PUSH2 0x2AC PUSH2 0x471 JUMP JUMPDEST JUMPDEST JUMP JUMPDEST DUP3 DUP1 SLOAD DUP3 DUP3 SSTORE SWAP1 PUSH1 0x0 MSTORE PUSH1 0x20 PUSH1 0x0 KECCAK256 SWAP1 DUP2 ADD SWAP3 DUP3 ISZERO PUSH2 0x2F0 JUMPI SWAP2 PUSH1 0x20 MUL DUP3 ADD JUMPDEST DUP3 DUP2 GT ISZERO PUSH2 0x2EF JUMPI DUP3 MLOAD DUP3 SWAP1 PUSH1 0xFF AND SWAP1 SSTORE SWAP2 PUSH1 0x20 ADD SWAP2 SWAP1 PUSH1 0x1 ADD SWAP1 PUSH2 0x2CF JUMP JUMPDEST JUMPDEST POP SWAP1 POP PUSH2 0x2FD SWAP2 SWAP1 PUSH2 0x301 JUMP JUMPDEST POP SWAP1 JUMP JUMPDEST JUMPDEST DUP1 DUP3 GT ISZERO PUSH2 0x31A JUMPI PUSH1 0x0 DUP2 PUSH1 0x0 SWAP1 SSTORE POP PUSH1 0x1 ADD PUSH2 0x302 JUMP JUMPDEST POP SWAP1 JUMP JUMPDEST PUSH1 0x0 DUP1 REVERT JUMPDEST PUSH1 0x0 DUP2 SWAP1 POP SWAP2 SWAP1 POP JUMP JUMPDEST PUSH2 0x336 DUP2 PUSH2 0x323 JUMP JUMPDEST DUP2 EQ PUSH2 0x341 JUMPI PUSH1 0x0 DUP1 REVERT JUMPDEST POP JUMP JUMPDEST PUSH1 0x0 DUP2 CALLDATALOAD SWAP1 POP PUSH2 0x353 DUP2 PUSH2 0x32D JUMP JUMPDEST SWAP3 SWAP2 POP POP JUMP JUMPDEST PUSH1 0x0 PUSH1 0x20 DUP3 DUP5 SUB SLT ISZERO PUSH2 0x36F JUMPI PUSH2 0x36E PUSH2 0x31E JUMP JUMPDEST JUMPDEST PUSH1 0x0 PUSH2 0x37D DUP5 DUP3 DUP6 ADD PUSH2 0x344 JUMP JUMPDEST SWAP2 POP POP SWAP3 SWAP2 POP POP JUMP JUMPDEST PUSH2 0x38F DUP2 PUSH2 0x323 JUMP JUMPDEST DUP3 MSTORE POP POP JUMP JUMPDEST PUSH1 0x0 PUSH1 0x20 DUP3 ADD SWAP1 POP PUSH2 0x3AA PUSH1 0x0 DUP4 ADD DUP5 PUSH2 0x386 JUMP JUMPDEST SWAP3 SWAP2 POP POP JUMP JUMPDEST PUSH32 0x4E487B7100000000000000000000000000000000000000000000000000000000 PUSH1 0x0 MSTORE PUSH1 0x11 PUSH1 0x4 MSTORE PUSH1 0x24 PUSH1 0x0 REVERT JUMPDEST PUSH1 0x0 PUSH2 0x3EA DUP3 PUSH2 0x323 JUMP JUMPDEST SWAP2 POP PUSH2 0x3F5 DUP4 PUSH2 0x323 JUMP JUMPDEST SWAP3 POP DUP3 DUP3 LT ISZERO PUSH2 0x408 JUMPI PUSH2 0x407 PUSH2 0x3B0 JUMP JUMPDEST JUMPDEST DUP3 DUP3 SUB SWAP1 POP SWAP3 SWAP2 POP POP JUMP JUMPDEST PUSH32 0x4E487B7100000000000000000000000000000000000000000000000000000000 PUSH1 0x0 MSTORE PUSH1 0x32 PUSH1 0x4 MSTORE PUSH1 0x24 PUSH1 0x0 REVERT JUMPDEST PUSH32 0x4E487B7100000000000000000000000000000000000000000000000000000000 PUSH1 0x0 MSTORE PUSH1 0x31 PUSH1 0x4 MSTORE PUSH1 0x24 PUSH1 0x0 REVERT JUMPDEST PUSH32 0x4E487B7100000000000000000000000000000000000000000000000000000000 PUSH1 0x0 MSTORE PUSH1 0x1 PUSH1 0x4 MSTORE PUSH1 0x24 PUSH1 0x0 REVERT INVALID LOG2 PUSH5 0x6970667358 0x22 SLT KECCAK256 SWAP8 0xEF GAS PUSH8 0x3CC605E884390513 JUMP 0xAE RETURN CREATE2 DUP9 GAS RETURN 0xDA 0xB7 0xE 0xCB 0xB2 0x26 SDIV 0xEB 0x28 0xEC 0xF8 SWAP1 0xB7 PUSH5 0x736F6C6343 STOP ADDMOD 0xF STOP CALLER "
				},
				"gasEstimates": {
					"creation": {
						"codeDepositCost": "247600",
						"executionCost": "287",
						"totalCost": "247887"
					},
					"external": {
						"arr(uint256)": "infinite",
						"remove(uint256)": "infinite",
						"test()": "infinite"
					}
				},
				"methodIdentifiers": {
					"arr(uint256)": "71e5ee5f",
					"remove(uint256)": "4cc82215",
					"test()": "f8a8fd6d"
				}
			},
			"storageLayout": {
				"storage": [
					{
						"astId": 218,
						"contract": "contracts/Arrays.sol:ArrayReplaceFromEnd",
						"label": "arr",
						"offset": 0,
						"slot": "0",
						"type": "t_array(t_uint256)dyn_storage"
					}
				],
				"types": {
					"t_array(t_uint256)dyn_storage": {
						"base": "t_uint256",
						"encoding": "dynamic_array",
						"label": "uint256[]",
						"numberOfBytes": "32"
					},
					"t_uint256": {
						"encoding": "inplace",
						"label": "uint256",
						"numberOfBytes": "32"
					}
				}
			},
			"userdoc": {
				"kind": "user",
				"methods": {},
				"version": 1
			}
		}
	}
}